{
  "contractName": "DecentMentor",
  "abi": [
    {
      "inputs": [],
      "stateMutability": "nonpayable",
      "type": "constructor"
    },
    {
      "anonymous": false,
      "inputs": [
        {
          "indexed": true,
          "internalType": "address",
          "name": "owner",
          "type": "address"
        },
        {
          "indexed": true,
          "internalType": "address",
          "name": "approved",
          "type": "address"
        },
        {
          "indexed": true,
          "internalType": "uint256",
          "name": "tokenId",
          "type": "uint256"
        }
      ],
      "name": "Approval",
      "type": "event"
    },
    {
      "anonymous": false,
      "inputs": [
        {
          "indexed": true,
          "internalType": "address",
          "name": "owner",
          "type": "address"
        },
        {
          "indexed": true,
          "internalType": "address",
          "name": "operator",
          "type": "address"
        },
        {
          "indexed": false,
          "internalType": "bool",
          "name": "approved",
          "type": "bool"
        }
      ],
      "name": "ApprovalForAll",
      "type": "event"
    },
    {
      "anonymous": false,
      "inputs": [
        {
          "indexed": true,
          "internalType": "address",
          "name": "previousOwner",
          "type": "address"
        },
        {
          "indexed": true,
          "internalType": "address",
          "name": "newOwner",
          "type": "address"
        }
      ],
      "name": "OwnershipTransferred",
      "type": "event"
    },
    {
      "anonymous": false,
      "inputs": [
        {
          "indexed": true,
          "internalType": "address",
          "name": "from",
          "type": "address"
        },
        {
          "indexed": true,
          "internalType": "address",
          "name": "to",
          "type": "address"
        },
        {
          "indexed": true,
          "internalType": "uint256",
          "name": "tokenId",
          "type": "uint256"
        }
      ],
      "name": "Transfer",
      "type": "event"
    },
    {
      "inputs": [
        {
          "internalType": "address",
          "name": "to",
          "type": "address"
        },
        {
          "internalType": "uint256",
          "name": "tokenId",
          "type": "uint256"
        }
      ],
      "name": "approve",
      "outputs": [],
      "stateMutability": "nonpayable",
      "type": "function"
    },
    {
      "inputs": [
        {
          "internalType": "address",
          "name": "owner",
          "type": "address"
        }
      ],
      "name": "balanceOf",
      "outputs": [
        {
          "internalType": "uint256",
          "name": "",
          "type": "uint256"
        }
      ],
      "stateMutability": "view",
      "type": "function",
      "constant": true
    },
    {
      "inputs": [
        {
          "internalType": "uint256",
          "name": "tokenId",
          "type": "uint256"
        }
      ],
      "name": "getApproved",
      "outputs": [
        {
          "internalType": "address",
          "name": "",
          "type": "address"
        }
      ],
      "stateMutability": "view",
      "type": "function",
      "constant": true
    },
    {
      "inputs": [
        {
          "internalType": "address",
          "name": "owner",
          "type": "address"
        },
        {
          "internalType": "address",
          "name": "operator",
          "type": "address"
        }
      ],
      "name": "isApprovedForAll",
      "outputs": [
        {
          "internalType": "bool",
          "name": "",
          "type": "bool"
        }
      ],
      "stateMutability": "view",
      "type": "function",
      "constant": true
    },
    {
      "inputs": [],
      "name": "name",
      "outputs": [
        {
          "internalType": "string",
          "name": "",
          "type": "string"
        }
      ],
      "stateMutability": "view",
      "type": "function",
      "constant": true
    },
    {
      "inputs": [],
      "name": "owner",
      "outputs": [
        {
          "internalType": "address",
          "name": "",
          "type": "address"
        }
      ],
      "stateMutability": "view",
      "type": "function",
      "constant": true
    },
    {
      "inputs": [
        {
          "internalType": "uint256",
          "name": "tokenId",
          "type": "uint256"
        }
      ],
      "name": "ownerOf",
      "outputs": [
        {
          "internalType": "address",
          "name": "",
          "type": "address"
        }
      ],
      "stateMutability": "view",
      "type": "function",
      "constant": true
    },
    {
      "inputs": [],
      "name": "renounceOwnership",
      "outputs": [],
      "stateMutability": "nonpayable",
      "type": "function"
    },
    {
      "inputs": [
        {
          "internalType": "address",
          "name": "from",
          "type": "address"
        },
        {
          "internalType": "address",
          "name": "to",
          "type": "address"
        },
        {
          "internalType": "uint256",
          "name": "tokenId",
          "type": "uint256"
        }
      ],
      "name": "safeTransferFrom",
      "outputs": [],
      "stateMutability": "nonpayable",
      "type": "function"
    },
    {
      "inputs": [
        {
          "internalType": "address",
          "name": "from",
          "type": "address"
        },
        {
          "internalType": "address",
          "name": "to",
          "type": "address"
        },
        {
          "internalType": "uint256",
          "name": "tokenId",
          "type": "uint256"
        },
        {
          "internalType": "bytes",
          "name": "_data",
          "type": "bytes"
        }
      ],
      "name": "safeTransferFrom",
      "outputs": [],
      "stateMutability": "nonpayable",
      "type": "function"
    },
    {
      "inputs": [
        {
          "internalType": "address",
          "name": "operator",
          "type": "address"
        },
        {
          "internalType": "bool",
          "name": "approved",
          "type": "bool"
        }
      ],
      "name": "setApprovalForAll",
      "outputs": [],
      "stateMutability": "nonpayable",
      "type": "function"
    },
    {
      "inputs": [
        {
          "internalType": "bytes4",
          "name": "interfaceId",
          "type": "bytes4"
        }
      ],
      "name": "supportsInterface",
      "outputs": [
        {
          "internalType": "bool",
          "name": "",
          "type": "bool"
        }
      ],
      "stateMutability": "view",
      "type": "function",
      "constant": true
    },
    {
      "inputs": [],
      "name": "symbol",
      "outputs": [
        {
          "internalType": "string",
          "name": "",
          "type": "string"
        }
      ],
      "stateMutability": "view",
      "type": "function",
      "constant": true
    },
    {
      "inputs": [
        {
          "internalType": "uint256",
          "name": "tokenId",
          "type": "uint256"
        }
      ],
      "name": "tokenURI",
      "outputs": [
        {
          "internalType": "string",
          "name": "",
          "type": "string"
        }
      ],
      "stateMutability": "view",
      "type": "function",
      "constant": true
    },
    {
      "inputs": [
        {
          "internalType": "address",
          "name": "from",
          "type": "address"
        },
        {
          "internalType": "address",
          "name": "to",
          "type": "address"
        },
        {
          "internalType": "uint256",
          "name": "tokenId",
          "type": "uint256"
        }
      ],
      "name": "transferFrom",
      "outputs": [],
      "stateMutability": "nonpayable",
      "type": "function"
    },
    {
      "inputs": [
        {
          "internalType": "address",
          "name": "newOwner",
          "type": "address"
        }
      ],
      "name": "transferOwnership",
      "outputs": [],
      "stateMutability": "nonpayable",
      "type": "function"
    },
    {
      "inputs": [
        {
          "internalType": "address",
          "name": "recipient",
          "type": "address"
        },
        {
          "internalType": "string",
          "name": "tokenURI",
          "type": "string"
        }
      ],
      "name": "mintMentorToken",
      "outputs": [
        {
          "internalType": "uint256",
          "name": "",
          "type": "uint256"
        }
      ],
      "stateMutability": "nonpayable",
      "type": "function"
    },
    {
      "inputs": [
        {
          "internalType": "address",
          "name": "recipient",
          "type": "address"
        },
        {
          "internalType": "string",
          "name": "tokenURI",
          "type": "string"
        }
      ],
      "name": "mintProtegeToken",
      "outputs": [
        {
          "internalType": "uint256",
          "name": "",
          "type": "uint256"
        }
      ],
      "stateMutability": "nonpayable",
      "type": "function"
    }
  ],
  "bytecode": "0x60806040523480156200001157600080fd5b506040518060400160405280600381526020017f4e465400000000000000000000000000000000000000000000000000000000008152506040518060400160405280600481526020017f454e465400000000000000000000000000000000000000000000000000000000815250816000908051906020019062000096929190620001a6565b508060019080519060200190620000af929190620001a6565b505050620000d2620000c6620000d860201b60201c565b620000e060201b60201c565b620002bb565b600033905090565b6000600760009054906101000a900473ffffffffffffffffffffffffffffffffffffffff16905081600760006101000a81548173ffffffffffffffffffffffffffffffffffffffff021916908373ffffffffffffffffffffffffffffffffffffffff1602179055508173ffffffffffffffffffffffffffffffffffffffff168173ffffffffffffffffffffffffffffffffffffffff167f8be0079c531659141344cd1fd0a4f28419497f9722a3daafe3b4186f6b6457e060405160405180910390a35050565b828054620001b49062000285565b90600052602060002090601f016020900481019282620001d8576000855562000224565b82601f10620001f357805160ff191683800117855562000224565b8280016001018555821562000224579182015b828111156200022357825182559160200191906001019062000206565b5b50905062000233919062000237565b5090565b5b808211156200025257600081600090555060010162000238565b5090565b7f4e487b7100000000000000000000000000000000000000000000000000000000600052602260045260246000fd5b600060028204905060018216806200029e57607f821691505b60208210811415620002b557620002b462000256565b5b50919050565b61310080620002cb6000396000f3fe608060405234801561001057600080fd5b50600436106101165760003560e01c8063715018a6116100a2578063a22cb46511610071578063a22cb465146102f3578063b88d4fde1461030f578063c87b56dd1461032b578063e985e9c51461035b578063f2fde38b1461038b57610116565b8063715018a61461027d5780638180e7d8146102875780638da5cb5b146102b757806395d89b41146102d557610116565b806323b872dd116100e957806323b872dd146101b557806342842e0e146101d157806362735855146101ed5780636352211e1461021d57806370a082311461024d57610116565b806301ffc9a71461011b57806306fdde031461014b578063081812fc14610169578063095ea7b314610199575b600080fd5b61013560048036038101906101309190611d64565b6103a7565b6040516101429190611dac565b60405180910390f35b610153610489565b6040516101609190611e60565b60405180910390f35b610183600480360381019061017e9190611eb8565b61051b565b6040516101909190611f26565b60405180910390f35b6101b360048036038101906101ae9190611f6d565b6105a0565b005b6101cf60048036038101906101ca9190611fad565b6106b8565b005b6101eb60048036038101906101e69190611fad565b610718565b005b61020760048036038101906102029190612135565b610738565b60405161021491906121a0565b60405180910390f35b61023760048036038101906102329190611eb8565b6107ec565b6040516102449190611f26565b60405180910390f35b610267600480360381019061026291906121bb565b61089e565b60405161027491906121a0565b60405180910390f35b610285610956565b005b6102a1600480360381019061029c9190612135565b6109de565b6040516102ae91906121a0565b60405180910390f35b6102bf610a92565b6040516102cc9190611f26565b60405180910390f35b6102dd610abc565b6040516102ea9190611e60565b60405180910390f35b61030d60048036038101906103089190612214565b610b4e565b005b610329600480360381019061032491906122f5565b610b64565b005b61034560048036038101906103409190611eb8565b610bc6565b6040516103529190611e60565b60405180910390f35b61037560048036038101906103709190612378565b610d18565b6040516103829190611dac565b60405180910390f35b6103a560048036038101906103a091906121bb565b610dac565b005b60007f80ac58cd000000000000000000000000000000000000000000000000000000007bffffffffffffffffffffffffffffffffffffffffffffffffffffffff1916827bffffffffffffffffffffffffffffffffffffffffffffffffffffffff1916148061047257507f5b5e139f000000000000000000000000000000000000000000000000000000007bffffffffffffffffffffffffffffffffffffffffffffffffffffffff1916827bffffffffffffffffffffffffffffffffffffffffffffffffffffffff1916145b80610482575061048182610ea4565b5b9050919050565b606060008054610498906123e7565b80601f01602080910402602001604051908101604052809291908181526020018280546104c4906123e7565b80156105115780601f106104e657610100808354040283529160200191610511565b820191906000526020600020905b8154815290600101906020018083116104f457829003601f168201915b5050505050905090565b600061052682610f0e565b610565576040517f08c379a000000000000000000000000000000000000000000000000000000000815260040161055c9061248b565b60405180910390fd5b6004600083815260200190815260200160002060009054906101000a900473ffffffffffffffffffffffffffffffffffffffff169050919050565b60006105ab826107ec565b90508073ffffffffffffffffffffffffffffffffffffffff168373ffffffffffffffffffffffffffffffffffffffff16141561061c576040517f08c379a00000000000000000000000000000000000000000000000000000000081526004016106139061251d565b60405180910390fd5b8073ffffffffffffffffffffffffffffffffffffffff1661063b610f7a565b73ffffffffffffffffffffffffffffffffffffffff16148061066a575061066981610664610f7a565b610d18565b5b6106a9576040517f08c379a00000000000000000000000000000000000000000000000000000000081526004016106a0906125af565b60405180910390fd5b6106b38383610f82565b505050565b6106c96106c3610f7a565b8261103b565b610708576040517f08c379a00000000000000000000000000000000000000000000000000000000081526004016106ff90612641565b60405180910390fd5b610713838383611119565b505050565b61073383838360405180602001604052806000815250610b64565b505050565b6000610742610f7a565b73ffffffffffffffffffffffffffffffffffffffff16610760610a92565b73ffffffffffffffffffffffffffffffffffffffff16146107b6576040517f08c379a00000000000000000000000000000000000000000000000000000000081526004016107ad906126ad565b60405180910390fd5b6107c06008611380565b60006107cc6008611396565b90506107d884826113a4565b6107e2818461157e565b8091505092915050565b6000806002600084815260200190815260200160002060009054906101000a900473ffffffffffffffffffffffffffffffffffffffff169050600073ffffffffffffffffffffffffffffffffffffffff168173ffffffffffffffffffffffffffffffffffffffff161415610895576040517f08c379a000000000000000000000000000000000000000000000000000000000815260040161088c9061273f565b60405180910390fd5b80915050919050565b60008073ffffffffffffffffffffffffffffffffffffffff168273ffffffffffffffffffffffffffffffffffffffff16141561090f576040517f08c379a0000000000000000000000000000000000000000000000000000000008152600401610906906127d1565b60405180910390fd5b600360008373ffffffffffffffffffffffffffffffffffffffff1673ffffffffffffffffffffffffffffffffffffffff168152602001908152602001600020549050919050565b61095e610f7a565b73ffffffffffffffffffffffffffffffffffffffff1661097c610a92565b73ffffffffffffffffffffffffffffffffffffffff16146109d2576040517f08c379a00000000000000000000000000000000000000000000000000000000081526004016109c9906126ad565b60405180910390fd5b6109dc60006115f2565b565b60006109e8610f7a565b73ffffffffffffffffffffffffffffffffffffffff16610a06610a92565b73ffffffffffffffffffffffffffffffffffffffff1614610a5c576040517f08c379a0000000000000000000000000000000000000000000000000000000008152600401610a53906126ad565b60405180910390fd5b610a666008611380565b6000610a726008611396565b9050610a7e84826113a4565b610a88818461157e565b8091505092915050565b6000600760009054906101000a900473ffffffffffffffffffffffffffffffffffffffff16905090565b606060018054610acb906123e7565b80601f0160208091040260200160405190810160405280929190818152602001828054610af7906123e7565b8015610b445780601f10610b1957610100808354040283529160200191610b44565b820191906000526020600020905b815481529060010190602001808311610b2757829003601f168201915b5050505050905090565b610b60610b59610f7a565b83836116b8565b5050565b610b75610b6f610f7a565b8361103b565b610bb4576040517f08c379a0000000000000000000000000000000000000000000000000000000008152600401610bab90612641565b60405180910390fd5b610bc084848484611825565b50505050565b6060610bd182610f0e565b610c10576040517f08c379a0000000000000000000000000000000000000000000000000000000008152600401610c0790612863565b60405180910390fd5b6000600660008481526020019081526020016000208054610c30906123e7565b80601f0160208091040260200160405190810160405280929190818152602001828054610c5c906123e7565b8015610ca95780601f10610c7e57610100808354040283529160200191610ca9565b820191906000526020600020905b815481529060010190602001808311610c8c57829003601f168201915b505050505090506000610cba611881565b9050600081511415610cd0578192505050610d13565b600082511115610d05578082604051602001610ced9291906128bf565b60405160208183030381529060405292505050610d13565b610d0e84611898565b925050505b919050565b6000600560008473ffffffffffffffffffffffffffffffffffffffff1673ffffffffffffffffffffffffffffffffffffffff16815260200190815260200160002060008373ffffffffffffffffffffffffffffffffffffffff1673ffffffffffffffffffffffffffffffffffffffff16815260200190815260200160002060009054906101000a900460ff16905092915050565b610db4610f7a565b73ffffffffffffffffffffffffffffffffffffffff16610dd2610a92565b73ffffffffffffffffffffffffffffffffffffffff1614610e28576040517f08c379a0000000000000000000000000000000000000000000000000000000008152600401610e1f906126ad565b60405180910390fd5b600073ffffffffffffffffffffffffffffffffffffffff168173ffffffffffffffffffffffffffffffffffffffff161415610e98576040517f08c379a0000000000000000000000000000000000000000000000000000000008152600401610e8f90612955565b60405180910390fd5b610ea1816115f2565b50565b60007f01ffc9a7000000000000000000000000000000000000000000000000000000007bffffffffffffffffffffffffffffffffffffffffffffffffffffffff1916827bffffffffffffffffffffffffffffffffffffffffffffffffffffffff1916149050919050565b60008073ffffffffffffffffffffffffffffffffffffffff166002600084815260200190815260200160002060009054906101000a900473ffffffffffffffffffffffffffffffffffffffff1673ffffffffffffffffffffffffffffffffffffffff1614159050919050565b600033905090565b816004600083815260200190815260200160002060006101000a81548173ffffffffffffffffffffffffffffffffffffffff021916908373ffffffffffffffffffffffffffffffffffffffff160217905550808273ffffffffffffffffffffffffffffffffffffffff16610ff5836107ec565b73ffffffffffffffffffffffffffffffffffffffff167f8c5be1e5ebec7d5bd14f71427d1e84f3dd0314c0f7b2291e5b200ac8c7c3b92560405160405180910390a45050565b600061104682610f0e565b611085576040517f08c379a000000000000000000000000000000000000000000000000000000000815260040161107c906129e7565b60405180910390fd5b6000611090836107ec565b90508073ffffffffffffffffffffffffffffffffffffffff168473ffffffffffffffffffffffffffffffffffffffff1614806110ff57508373ffffffffffffffffffffffffffffffffffffffff166110e78461051b565b73ffffffffffffffffffffffffffffffffffffffff16145b80611110575061110f8185610d18565b5b91505092915050565b8273ffffffffffffffffffffffffffffffffffffffff16611139826107ec565b73ffffffffffffffffffffffffffffffffffffffff161461118f576040517f08c379a000000000000000000000000000000000000000000000000000000000815260040161118690612a79565b60405180910390fd5b600073ffffffffffffffffffffffffffffffffffffffff168273ffffffffffffffffffffffffffffffffffffffff1614156111ff576040517f08c379a00000000000000000000000000000000000000000000000000000000081526004016111f690612b0b565b60405180910390fd5b61120a83838361193f565b611215600082610f82565b6001600360008573ffffffffffffffffffffffffffffffffffffffff1673ffffffffffffffffffffffffffffffffffffffff16815260200190815260200160002060008282546112659190612b5a565b925050819055506001600360008473ffffffffffffffffffffffffffffffffffffffff1673ffffffffffffffffffffffffffffffffffffffff16815260200190815260200160002060008282546112bc9190612b8e565b92505081905550816002600083815260200190815260200160002060006101000a81548173ffffffffffffffffffffffffffffffffffffffff021916908373ffffffffffffffffffffffffffffffffffffffff160217905550808273ffffffffffffffffffffffffffffffffffffffff168473ffffffffffffffffffffffffffffffffffffffff167fddf252ad1be2c89b69c2b068fc378daa952ba7f163c4a11628f55a4df523b3ef60405160405180910390a461137b838383611944565b505050565b6001816000016000828254019250508190555050565b600081600001549050919050565b600073ffffffffffffffffffffffffffffffffffffffff168273ffffffffffffffffffffffffffffffffffffffff161415611414576040517f08c379a000000000000000000000000000000000000000000000000000000000815260040161140b90612c30565b60405180910390fd5b61141d81610f0e565b1561145d576040517f08c379a000000000000000000000000000000000000000000000000000000000815260040161145490612c9c565b60405180910390fd5b6114696000838361193f565b6001600360008473ffffffffffffffffffffffffffffffffffffffff1673ffffffffffffffffffffffffffffffffffffffff16815260200190815260200160002060008282546114b99190612b8e565b92505081905550816002600083815260200190815260200160002060006101000a81548173ffffffffffffffffffffffffffffffffffffffff021916908373ffffffffffffffffffffffffffffffffffffffff160217905550808273ffffffffffffffffffffffffffffffffffffffff16600073ffffffffffffffffffffffffffffffffffffffff167fddf252ad1be2c89b69c2b068fc378daa952ba7f163c4a11628f55a4df523b3ef60405160405180910390a461157a60008383611944565b5050565b61158782610f0e565b6115c6576040517f08c379a00000000000000000000000000000000000000000000000000000000081526004016115bd90612d2e565b60405180910390fd5b806006600084815260200190815260200160002090805190602001906115ed929190611c55565b505050565b6000600760009054906101000a900473ffffffffffffffffffffffffffffffffffffffff16905081600760006101000a81548173ffffffffffffffffffffffffffffffffffffffff021916908373ffffffffffffffffffffffffffffffffffffffff1602179055508173ffffffffffffffffffffffffffffffffffffffff168173ffffffffffffffffffffffffffffffffffffffff167f8be0079c531659141344cd1fd0a4f28419497f9722a3daafe3b4186f6b6457e060405160405180910390a35050565b8173ffffffffffffffffffffffffffffffffffffffff168373ffffffffffffffffffffffffffffffffffffffff161415611727576040517f08c379a000000000000000000000000000000000000000000000000000000000815260040161171e90612d9a565b60405180910390fd5b80600560008573ffffffffffffffffffffffffffffffffffffffff1673ffffffffffffffffffffffffffffffffffffffff16815260200190815260200160002060008473ffffffffffffffffffffffffffffffffffffffff1673ffffffffffffffffffffffffffffffffffffffff16815260200190815260200160002060006101000a81548160ff0219169083151502179055508173ffffffffffffffffffffffffffffffffffffffff168373ffffffffffffffffffffffffffffffffffffffff167f17307eab39ab6107e8899845ad3d59bd9653f200f220920489ca2b5937696c31836040516118189190611dac565b60405180910390a3505050565b611830848484611119565b61183c84848484611949565b61187b576040517f08c379a000000000000000000000000000000000000000000000000000000000815260040161187290612e2c565b60405180910390fd5b50505050565b606060405180602001604052806000815250905090565b60606118a382610f0e565b6118e2576040517f08c379a00000000000000000000000000000000000000000000000000000000081526004016118d990612ebe565b60405180910390fd5b60006118ec611881565b9050600081511161190c5760405180602001604052806000815250611937565b8061191684611ad1565b6040516020016119279291906128bf565b6040516020818303038152906040525b915050919050565b505050565b505050565b600061196a8473ffffffffffffffffffffffffffffffffffffffff16611c32565b15611ac4578373ffffffffffffffffffffffffffffffffffffffff1663150b7a02611993610f7a565b8786866040518563ffffffff1660e01b81526004016119b59493929190612f33565b6020604051808303816000875af19250505080156119f157506040513d601f19601f820116820180604052508101906119ee9190612f94565b60015b611a74573d8060008114611a21576040519150601f19603f3d011682016040523d82523d6000602084013e611a26565b606091505b50600081511415611a6c576040517f08c379a0000000000000000000000000000000000000000000000000000000008152600401611a6390612e2c565b60405180910390fd5b805181602001fd5b63150b7a0260e01b7bffffffffffffffffffffffffffffffffffffffffffffffffffffffff1916817bffffffffffffffffffffffffffffffffffffffffffffffffffffffff191614915050611ac9565b600190505b949350505050565b60606000821415611b19576040518060400160405280600181526020017f30000000000000000000000000000000000000000000000000000000000000008152509050611c2d565b600082905060005b60008214611b4b578080611b3490612fc1565b915050600a82611b449190613039565b9150611b21565b60008167ffffffffffffffff811115611b6757611b6661200a565b5b6040519080825280601f01601f191660200182016040528015611b995781602001600182028036833780820191505090505b5090505b60008514611c2657600182611bb29190612b5a565b9150600a85611bc1919061306a565b6030611bcd9190612b8e565b60f81b818381518110611be357611be261309b565b5b60200101907effffffffffffffffffffffffffffffffffffffffffffffffffffffffffffff1916908160001a905350600a85611c1f9190613039565b9450611b9d565b8093505050505b919050565b6000808273ffffffffffffffffffffffffffffffffffffffff163b119050919050565b828054611c61906123e7565b90600052602060002090601f016020900481019282611c835760008555611cca565b82601f10611c9c57805160ff1916838001178555611cca565b82800160010185558215611cca579182015b82811115611cc9578251825591602001919060010190611cae565b5b509050611cd79190611cdb565b5090565b5b80821115611cf4576000816000905550600101611cdc565b5090565b6000604051905090565b600080fd5b600080fd5b60007fffffffff0000000000000000000000000000000000000000000000000000000082169050919050565b611d4181611d0c565b8114611d4c57600080fd5b50565b600081359050611d5e81611d38565b92915050565b600060208284031215611d7a57611d79611d02565b5b6000611d8884828501611d4f565b91505092915050565b60008115159050919050565b611da681611d91565b82525050565b6000602082019050611dc16000830184611d9d565b92915050565b600081519050919050565b600082825260208201905092915050565b60005b83811015611e01578082015181840152602081019050611de6565b83811115611e10576000848401525b50505050565b6000601f19601f8301169050919050565b6000611e3282611dc7565b611e3c8185611dd2565b9350611e4c818560208601611de3565b611e5581611e16565b840191505092915050565b60006020820190508181036000830152611e7a8184611e27565b905092915050565b6000819050919050565b611e9581611e82565b8114611ea057600080fd5b50565b600081359050611eb281611e8c565b92915050565b600060208284031215611ece57611ecd611d02565b5b6000611edc84828501611ea3565b91505092915050565b600073ffffffffffffffffffffffffffffffffffffffff82169050919050565b6000611f1082611ee5565b9050919050565b611f2081611f05565b82525050565b6000602082019050611f3b6000830184611f17565b92915050565b611f4a81611f05565b8114611f5557600080fd5b50565b600081359050611f6781611f41565b92915050565b60008060408385031215611f8457611f83611d02565b5b6000611f9285828601611f58565b9250506020611fa385828601611ea3565b9150509250929050565b600080600060608486031215611fc657611fc5611d02565b5b6000611fd486828701611f58565b9350506020611fe586828701611f58565b9250506040611ff686828701611ea3565b9150509250925092565b600080fd5b600080fd5b7f4e487b7100000000000000000000000000000000000000000000000000000000600052604160045260246000fd5b61204282611e16565b810181811067ffffffffffffffff821117156120615761206061200a565b5b80604052505050565b6000612074611cf8565b90506120808282612039565b919050565b600067ffffffffffffffff8211156120a05761209f61200a565b5b6120a982611e16565b9050602081019050919050565b82818337600083830152505050565b60006120d86120d384612085565b61206a565b9050828152602081018484840111156120f4576120f3612005565b5b6120ff8482856120b6565b509392505050565b600082601f83011261211c5761211b612000565b5b813561212c8482602086016120c5565b91505092915050565b6000806040838503121561214c5761214b611d02565b5b600061215a85828601611f58565b925050602083013567ffffffffffffffff81111561217b5761217a611d07565b5b61218785828601612107565b9150509250929050565b61219a81611e82565b82525050565b60006020820190506121b56000830184612191565b92915050565b6000602082840312156121d1576121d0611d02565b5b60006121df84828501611f58565b91505092915050565b6121f181611d91565b81146121fc57600080fd5b50565b60008135905061220e816121e8565b92915050565b6000806040838503121561222b5761222a611d02565b5b600061223985828601611f58565b925050602061224a858286016121ff565b9150509250929050565b600067ffffffffffffffff82111561226f5761226e61200a565b5b61227882611e16565b9050602081019050919050565b600061229861229384612254565b61206a565b9050828152602081018484840111156122b4576122b3612005565b5b6122bf8482856120b6565b509392505050565b600082601f8301126122dc576122db612000565b5b81356122ec848260208601612285565b91505092915050565b6000806000806080858703121561230f5761230e611d02565b5b600061231d87828801611f58565b945050602061232e87828801611f58565b935050604061233f87828801611ea3565b925050606085013567ffffffffffffffff8111156123605761235f611d07565b5b61236c878288016122c7565b91505092959194509250565b6000806040838503121561238f5761238e611d02565b5b600061239d85828601611f58565b92505060206123ae85828601611f58565b9150509250929050565b7f4e487b7100000000000000000000000000000000000000000000000000000000600052602260045260246000fd5b600060028204905060018216806123ff57607f821691505b60208210811415612413576124126123b8565b5b50919050565b7f4552433732313a20617070726f76656420717565727920666f72206e6f6e657860008201527f697374656e7420746f6b656e0000000000000000000000000000000000000000602082015250565b6000612475602c83611dd2565b915061248082612419565b604082019050919050565b600060208201905081810360008301526124a481612468565b9050919050565b7f4552433732313a20617070726f76616c20746f2063757272656e74206f776e6560008201527f7200000000000000000000000000000000000000000000000000000000000000602082015250565b6000612507602183611dd2565b9150612512826124ab565b604082019050919050565b60006020820190508181036000830152612536816124fa565b9050919050565b7f4552433732313a20617070726f76652063616c6c6572206973206e6f74206f7760008201527f6e6572206e6f7220617070726f76656420666f7220616c6c0000000000000000602082015250565b6000612599603883611dd2565b91506125a48261253d565b604082019050919050565b600060208201905081810360008301526125c88161258c565b9050919050565b7f4552433732313a207472616e736665722063616c6c6572206973206e6f74206f60008201527f776e6572206e6f7220617070726f766564000000000000000000000000000000602082015250565b600061262b603183611dd2565b9150612636826125cf565b604082019050919050565b6000602082019050818103600083015261265a8161261e565b9050919050565b7f4f776e61626c653a2063616c6c6572206973206e6f7420746865206f776e6572600082015250565b6000612697602083611dd2565b91506126a282612661565b602082019050919050565b600060208201905081810360008301526126c68161268a565b9050919050565b7f4552433732313a206f776e657220717565727920666f72206e6f6e657869737460008201527f656e7420746f6b656e0000000000000000000000000000000000000000000000602082015250565b6000612729602983611dd2565b9150612734826126cd565b604082019050919050565b600060208201905081810360008301526127588161271c565b9050919050565b7f4552433732313a2062616c616e636520717565727920666f7220746865207a6560008201527f726f206164647265737300000000000000000000000000000000000000000000602082015250565b60006127bb602a83611dd2565b91506127c68261275f565b604082019050919050565b600060208201905081810360008301526127ea816127ae565b9050919050565b7f45524337323155524953746f726167653a2055524920717565727920666f722060008201527f6e6f6e6578697374656e7420746f6b656e000000000000000000000000000000602082015250565b600061284d603183611dd2565b9150612858826127f1565b604082019050919050565b6000602082019050818103600083015261287c81612840565b9050919050565b600081905092915050565b600061289982611dc7565b6128a38185612883565b93506128b3818560208601611de3565b80840191505092915050565b60006128cb828561288e565b91506128d7828461288e565b91508190509392505050565b7f4f776e61626c653a206e6577206f776e657220697320746865207a65726f206160008201527f6464726573730000000000000000000000000000000000000000000000000000602082015250565b600061293f602683611dd2565b915061294a826128e3565b604082019050919050565b6000602082019050818103600083015261296e81612932565b9050919050565b7f4552433732313a206f70657261746f7220717565727920666f72206e6f6e657860008201527f697374656e7420746f6b656e0000000000000000000000000000000000000000602082015250565b60006129d1602c83611dd2565b91506129dc82612975565b604082019050919050565b60006020820190508181036000830152612a00816129c4565b9050919050565b7f4552433732313a207472616e736665722066726f6d20696e636f72726563742060008201527f6f776e6572000000000000000000000000000000000000000000000000000000602082015250565b6000612a63602583611dd2565b9150612a6e82612a07565b604082019050919050565b60006020820190508181036000830152612a9281612a56565b9050919050565b7f4552433732313a207472616e7366657220746f20746865207a65726f2061646460008201527f7265737300000000000000000000000000000000000000000000000000000000602082015250565b6000612af5602483611dd2565b9150612b0082612a99565b604082019050919050565b60006020820190508181036000830152612b2481612ae8565b9050919050565b7f4e487b7100000000000000000000000000000000000000000000000000000000600052601160045260246000fd5b6000612b6582611e82565b9150612b7083611e82565b925082821015612b8357612b82612b2b565b5b828203905092915050565b6000612b9982611e82565b9150612ba483611e82565b9250827fffffffffffffffffffffffffffffffffffffffffffffffffffffffffffffffff03821115612bd957612bd8612b2b565b5b828201905092915050565b7f4552433732313a206d696e7420746f20746865207a65726f2061646472657373600082015250565b6000612c1a602083611dd2565b9150612c2582612be4565b602082019050919050565b60006020820190508181036000830152612c4981612c0d565b9050919050565b7f4552433732313a20746f6b656e20616c7265616479206d696e74656400000000600082015250565b6000612c86601c83611dd2565b9150612c9182612c50565b602082019050919050565b60006020820190508181036000830152612cb581612c79565b9050919050565b7f45524337323155524953746f726167653a2055524920736574206f66206e6f6e60008201527f6578697374656e7420746f6b656e000000000000000000000000000000000000602082015250565b6000612d18602e83611dd2565b9150612d2382612cbc565b604082019050919050565b60006020820190508181036000830152612d4781612d0b565b9050919050565b7f4552433732313a20617070726f766520746f2063616c6c657200000000000000600082015250565b6000612d84601983611dd2565b9150612d8f82612d4e565b602082019050919050565b60006020820190508181036000830152612db381612d77565b9050919050565b7f4552433732313a207472616e7366657220746f206e6f6e20455243373231526560008201527f63656976657220696d706c656d656e7465720000000000000000000000000000602082015250565b6000612e16603283611dd2565b9150612e2182612dba565b604082019050919050565b60006020820190508181036000830152612e4581612e09565b9050919050565b7f4552433732314d657461646174613a2055524920717565727920666f72206e6f60008201527f6e6578697374656e7420746f6b656e0000000000000000000000000000000000602082015250565b6000612ea8602f83611dd2565b9150612eb382612e4c565b604082019050919050565b60006020820190508181036000830152612ed781612e9b565b9050919050565b600081519050919050565b600082825260208201905092915050565b6000612f0582612ede565b612f0f8185612ee9565b9350612f1f818560208601611de3565b612f2881611e16565b840191505092915050565b6000608082019050612f486000830187611f17565b612f556020830186611f17565b612f626040830185612191565b8181036060830152612f748184612efa565b905095945050505050565b600081519050612f8e81611d38565b92915050565b600060208284031215612faa57612fa9611d02565b5b6000612fb884828501612f7f565b91505092915050565b6000612fcc82611e82565b91507fffffffffffffffffffffffffffffffffffffffffffffffffffffffffffffffff821415612fff57612ffe612b2b565b5b600182019050919050565b7f4e487b7100000000000000000000000000000000000000000000000000000000600052601260045260246000fd5b600061304482611e82565b915061304f83611e82565b92508261305f5761305e61300a565b5b828204905092915050565b600061307582611e82565b915061308083611e82565b9250826130905761308f61300a565b5b828206905092915050565b7f4e487b7100000000000000000000000000000000000000000000000000000000600052603260045260246000fdfea264697066735822122023e7f4512f35e73121f4ad99c0fd37c572849ec4b065e592ab6f122d25336c4064736f6c634300080b0033",
  "immutableReferences": {},
  "source": "// SPDX-License-Identifier: MIT\npragma solidity >=0.4.22 <0.9.0;\n// bring in openzeppelin erc-721 contracts, etc\nimport \"@openzeppelin/contracts/token/ERC721/ERC721.sol\";\nimport \"@openzeppelin/contracts/token/ERC721/extensions/ERC721URIStorage.sol\";\nimport \"@openzeppelin/contracts/utils/Counters.sol\";\nimport \"@openzeppelin/contracts/access/Ownable.sol\";\n\n// profile token built on erc-721\n// used to create mentor cards or profiles that will be added to and on display for the community\n// What are the attributes of a Mentor Profile Card?\n\n// bring in profile card struct\n    // active proteges \n    // qualifiers, skills, and acheivements\n    // contact info\n// Mint-a-Link function to create \n//  Discord Gates,\n//  Zoom/Video Event Gates,\n//  Value Store representations,\n// Decent Mentor AngelToken Mintor\n//   - a clone of AngelTokens executed on through a DecentMentor Meeting\n\n\ncontract DecentMentor is ERC721URIStorage, Ownable {\n   using Counters for Counters.Counter;\n   Counters.Counter private _tokenIds;\n\n   constructor() ERC721(\"NFT\", \"ENFT\") {}\n\n   function mintMentorToken(address recipient, string memory tokenURI)\n       public onlyOwner\n       returns (uint256)\n   {\n       _tokenIds.increment();\n\n       uint256 newItemId = _tokenIds.current();\n       _mint(recipient, newItemId);\n       _setTokenURI(newItemId, tokenURI);\n\n       return newItemId;\n   }\n\n   function mintProtegeToken(address recipient, string memory tokenURI)\n       public onlyOwner\n       returns (uint256)\n   {\n       _tokenIds.increment();\n\n       uint256 newItemId = _tokenIds.current();\n       _mint(recipient, newItemId);\n       _setTokenURI(newItemId, tokenURI);\n\n       return newItemId;\n   }\n}",
  "sourcePath": "/Users/j/DevTree/DecentAgency/contracts/DecentMentor.sol",
  "compiler": {
    "name": "solc",
    "version": "0.8.11+commit.d7f03943.Emscripten.clang"
  },
  "schemaVersion": "3.4.5",
  "updatedAt": "2022-03-06T09:48:24.161Z",
  "networkType": "ethereum",
  "devdoc": {
    "kind": "dev",
    "methods": {
      "approve(address,uint256)": {
        "details": "See {IERC721-approve}."
      },
      "balanceOf(address)": {
        "details": "See {IERC721-balanceOf}."
      },
      "getApproved(uint256)": {
        "details": "See {IERC721-getApproved}."
      },
      "isApprovedForAll(address,address)": {
        "details": "See {IERC721-isApprovedForAll}."
      },
      "name()": {
        "details": "See {IERC721Metadata-name}."
      },
      "owner()": {
        "details": "Returns the address of the current owner."
      },
      "ownerOf(uint256)": {
        "details": "See {IERC721-ownerOf}."
      },
      "renounceOwnership()": {
        "details": "Leaves the contract without owner. It will not be possible to call `onlyOwner` functions anymore. Can only be called by the current owner. NOTE: Renouncing ownership will leave the contract without an owner, thereby removing any functionality that is only available to the owner."
      },
      "safeTransferFrom(address,address,uint256)": {
        "details": "See {IERC721-safeTransferFrom}."
      },
      "safeTransferFrom(address,address,uint256,bytes)": {
        "details": "See {IERC721-safeTransferFrom}."
      },
      "setApprovalForAll(address,bool)": {
        "details": "See {IERC721-setApprovalForAll}."
      },
      "supportsInterface(bytes4)": {
        "details": "See {IERC165-supportsInterface}."
      },
      "symbol()": {
        "details": "See {IERC721Metadata-symbol}."
      },
      "tokenURI(uint256)": {
        "details": "See {IERC721Metadata-tokenURI}."
      },
      "transferFrom(address,address,uint256)": {
        "details": "See {IERC721-transferFrom}."
      },
      "transferOwnership(address)": {
        "details": "Transfers ownership of the contract to a new account (`newOwner`). Can only be called by the current owner."
      }
    },
    "version": 1
  },
  "userdoc": {
    "kind": "user",
    "methods": {},
    "version": 1
  }
}